:020000040800F2
:10000000B80400209D01000845100008190F0008E1
:1000100041100008A902000859150008000000005E
:100020000000000000000000000000008513000830
:10003000AD0200080000000075100008B9130008A8
:10004000B7010008B7010008B7010008B7010008B0
:10005000B7010008B7010008B7010008B7010008A0
:10006000B7010008B7010008B7010008B701000890
:10007000B7010008B7010008B7010008B701000880
:10008000B7010008B7010008B7010008B701000870
:10009000B7010008B7010008B7010008B701000860
:1000A000B7010008B7010008B7010008B701000850
:1000B000B7010008B7010008B7010008B701000840
:1000C000B7010008B7010008B7010008B701000830
:1000D000B7010008B7010008B7010008B701000820
:1000E000B7010008B7010008B7010008B701000810
:1000F000B7010008B7010008B7010008B701000800
:10010000B7010008B7010008B7010008B7010008EF
:10011000B7010008B7010008B7010008B7010008DF
:10012000B7010008B7010008B7010008B7010008CF
:10013000B7010008B7010008B7010008B7010008BF
:10014000B7010008B7010008B7010008B7010008AF
:10015000B7010008B7010008B7010008B70100089F
:10016000B7010008B7010008B7010008B70100088F
:10017000B7010008B7010008B7010008000000003F
:10018000B7010008B7010008DFF80CD000F07AF8DA
:1001900000480047C5150008B804002006488047FD
:1001A00006480047FEE7FEE7FEE7FEE7FEE7FEE75C
:1001B000FEE7FEE7FEE7FEE7691400088901000894
:1001C0002DE9F05F0546002092469B46884606468C
:1001D000814640241BE0284641464746224600F01F
:1001E00041F853465A46C01A914110D31146184659
:1001F000224600F028F82D1A67EB01084F462246E8
:100200000120002100F01FF817EB00094E41201ECD
:10021000A4F10104DFDC484631462A464346BDE8E6
:10022000F09FD2B201E000F8012B491EFBD27047CB
:100230000022F6E710B513460A4604461946FFF7B2
:10024000F0FF204610BD202A04DB203A00FA02F11C
:10025000002070479140C2F1200320FA03F31943B4
:1002600090407047202A04DB203A21FA02F0002156
:10027000704721FA02F3D040C2F1200291400843B6
:1002800019467047064C074D06E0E06840F0010350
:1002900094E8070098471034AC42F6D3FFF778FF94
:1002A0006019000880190008FEE700007047000090
:1002B000EFF3108072B67047B0B5044600F0E2F874
:1002C000054640F20D00C2F200000078611C18BF24
:1002D000044400BF00F0D6F8401BA042FAD3B0BDE2
:1002E0002DE9F04F83B000F13E4202F1FF724FEA78
:1002F000B22241F600470192C4F2020708224FF0F1
:10030000010E00254FF0000A4FF00008B84208BF68
:10031000072200920AE000BF08F101080AF1040A6E
:10032000B8F1100F05F1020500F0A2800C680EFA7A
:1003300008FB14EA0B09EFD04C6804F0030CACF195
:10034000010EBEF1010F12D882680323CE6803FAB2
:1003500005F7BA4306FA05F73A4382604268C4F3E8
:10036000001722EA0B0207FA08F73A434260BCF191
:10037000030F1CD0C26803238E6803FA05F7BA4343
:1003800006FA05F73A43BCF1020FC2600FD16FF0D5
:10039000030202EA580202440AF01C060F23176AFD
:1003A00003FA06F40B69A743B3403B4313620268A8
:1003B00003234F68AB409A4307F00303AB401A4353
:1003C000FB004FF0010E0260A6D5002243F6440365
:1003D0000292C4F202031A6843F6004442F48042D7
:1003E0001A601A68C4F2010402F480420292029A6E
:1003F00028F003024FF6084B2244CFF6FF7B52F859
:100400000B300AF00C070F26BE4023EA060C019BB6
:10041000009E072B38BF1E4606FA07F747EA0C0373
:1004200042F80B3022684B6842EA0907DE0358BFE6
:1004300022EA0907276062689E0342EA090758BF5B
:1004400022EA09076760A268DE0242EA090758BF8C
:1004500022EA0907A76043F60C47C4F201073A688D
:100460009B0242EA090358BF22EA09033B6053E7B3
:1004700003B0BDE8F08F0000002A08BF09048161C5
:100480007047000040F2B400C2F2000000687047FC
:1004900040F20D0040F2B401C2F20000C2F20001CD
:1004A00000780A68104408607047000080B543F681
:1004B0000040C4F20200016841F40071016001686B
:1004C00041F480610160016841F4807101600320A2
:1004D00000F05CF8002000F005F800F02BF8002098
:1004E00080BD0000B0B540F20D02C2F2000240F241
:1004F00004011278C2F200014FF47A730968B3FB69
:10050000F2F20446B1FBF2F1084600F097FC0F2C22
:100510004FF001050CD858B94FF0FF3021460022AA
:10052000002500F023F840F21000C2F20000046041
:100530002846B0BD82B0002043F640010190C4F2CD
:1005400002014A6842F480424A604A6802F48042EA
:100550000192019A0090086840F080500860086895
:1005600000F080500090009802B0704770B51446BB
:100570000D46064600F0F2FF2946224600F064FDD3
:100580000146304600F0F2FF70BD000080B500F07B
:10059000FFFF80BD2DE9F041002800F08B8043F67D
:1005A0000808C4F202080446D8F8F8030D4600F023
:1005B0000700884207D288F8F853D8F8F80300F00B
:1005C0000700A84276D12068810717D5410705D5D5
:1005D000D8F8001041F4E051C8F80010010705D523
:1005E000D8F8001041F46041C8F80010D8F80010A5
:1005F000A26821F0F0011143C8F80010C0073FD1F4
:10060000D8F8F80300F00700A84207D988F8F85393
:10061000D8F8F80300F00700A8424BD12068410742
:1006200007D5D8F80010E26821F4E0511143C8F86A
:100630000010000708D5D8F80000216920F46040B8
:1006400040EAC100C8F8000000F07EF8D8F80010B9
:1006500041F64412C1F30311C0F60002515C40F2AE
:10066000040220FA01F140F21000C2F2000000681A
:10067000C2F200021160FFF735FF0020BDE8F081F3
:100680006068811E022907D258F8081C89015CBFE6
:100690000120BDE8F08110E0012807D158F8081CBE
:1006A00089035CBF0120BDE8F08106E058F8081C12
:1006B000890702D40120BDE8F081D8F8001021F0AC
:1006C00003010843C8F80000FFF7DCFE064641F2CC
:1006D000883700BFD8F80000616800F00C00B0EB6C
:1006E000810F8DD0FFF7CEFE801BB842F2D90320D8
:1006F000BDE8F08140F20400C2F2000000687047DB
:1007000080B5FFF7F7FF43F60801C4F2020109685C
:1007100041F65412C1F38221C0F60002515CC84078
:1007200080BD000080B5FFF7E5FF43F60801C4F285
:100730000201096841F65412C1F34231C0F60002C9
:10074000515CC84080BD000010B543F60404C4F2FB
:100750000204606800F00C0142F200400829C0F277
:10076000F40007D0042918BF10BD41F20020C0F2E8
:100770007A0010BD216801F03F0221682368490218
:10078000C3F3881105D4A1FB00010023FFF718FD76
:1007900006E041F20020C0F27A004843B0FBF2F0DC
:1007A00021680222C1F3014102EB4101B0FBF1F0EB
:1007B00010BD00002DE9F04182B0002800F09F80BC
:1007C0000446007843F60006C007C4F2020641D092
:1007D000B06800F00C00042805D13068800339D5DA
:1007E0006068B8BB8BE0B06800F00C00082802D14C
:1007F00070684002F1D46568B5F5803F06D0306876
:10080000B5F5A02F06D140F480203060306840F468
:10081000803005E020F480303060306820F48020A3
:100820003060FFF72FFE002D054610D030688003A2
:1008300010D4FFF727FE401B6428F7D922E100BF40
:10084000FFF720FE401B64284FF0030054D83068A7
:100850008003F5D4207880071AD5B06810F00C0F0B
:1008600009D0B06800F00C00082840F08C80706857
:10087000400200F188803068800702D5E0680128D6
:100880003DD13068216920F0F80040EAC1003060B5
:100890002078000737D4207840074AD4A56955B39B
:1008A000B06800F00C00082840F0A080012D26D090
:1008B0007068E16900F480028A4220D1216A00F068
:1008C0003F028A421BD147F6C071626A0140B1EB18
:1008D000821F14D1A16A4FF6FF73C903994300F434
:1008E0004032A1F580318A4209D1E16A00F070609E
:1008F000B0EB016F03D1002002B0BDE8F081012010
:1009000002B0BDE8F0816069002840F20000C4F246
:1009100047205AD00121C0F8801EFFF7B3FD0546DD
:10092000706F8007B7D4FFF7ADFD401B0228F7D9E1
:10093000A8E0306C4FF00008C0000CD4CDF8048063
:10094000306C4FF0010840F080503064306C00F0A3
:1009500080500190019847F20007C4F20007386800
:10096000C00525D4386840F480703860FFF78AFDF0
:10097000054600BF3868C0051AD4FFF783FD401B49
:100980000228F7D97EE0E068002851D00020C4F2A8
:10099000472001210160FFF775FD0546306880079B
:1009A0003FF56FAFFFF76EFD401B0228F6D969E0F7
:1009B000A568012D05D0306F052D4DD140F0040004
:1009C0003067306F40F001004CE00021C0F8801E1D
:1009D000FFF758FD054600BF706F80077FF55BAFDE
:1009E000FFF750FD401B0228F6D94BE00027C4F268
:1009F000472700203866FFF745FD022D05460BD13D
:100A00003068800156D5FFF73DFD401B02284FF0AE
:100A10000300F5D970E700BF306880017FF56BAF48
:100A2000FFF730FD401B02284FF00300F4D963E7C5
:100A30000020C4F2472000210160FFF723FD054696
:100A4000306880077FF524AFFFF71CFD401B0228AC
:100A50004FF00300F4D94FE720F001003067306F0A
:100A600020F004003067FFF70DFD002D054641F230
:100A7000883713D0306F800713D4FFF703FD401B76
:100A8000B842F7D9032002B0BDE8F081FFF7FAFCC5
:100A9000401BB8424FF003003FF62EAF306F800787
:100AA000F4D4B8F1000F3FF4F9AE306C20F0805070
:100AB0003064F3E604F11C052FCD084340EA8210B0
:100AC000D9034FF6FF729143A1F5803140EA0560EA
:100AD0000843706001203866FFF7D4FC044600BF6D
:100AE000306880013FF507AFFFF7CCFC001B022800
:100AF0004FF00300F4D9FFE670B538B10446406A00
:100B000030B10020206104F1140007E0012070BD25
:100B10006068B0F5827F03D004F11C000021016001
:100B20000026A66294F8510020B9204684F850604F
:100B300000F03CF8022084F8510094E80F0001F422
:100B40008271056802F4044225F0400505601144F5
:100B500003F400622369114403F002026369114443
:100B600003F00102A369E569114403F40072114422
:100B700005F03802256A114405F08002A56A114388
:100B800005F4005211430160626A042101EA134135
:100B900002F0100211444160C16921F40061C16199
:100BA0000120666584F85100304670BD2DE9F043A0
:100BB00087B000260696CDE9046643F60005006876
:100BC000C4F20005A8420396029602D007B0BDE821
:100BD000F08343F630000196C4F20200016902ACD2
:100BE00041F48041016101694FF0020801F4804144
:100BF00001910199019601684FF0030941F0040148
:100C000001600168052701F0040101910199019635
:100C1000016841F0020101600068214600F0020015
:100C2000019001980C20029005F5E830CDE903868B
:100C3000CDF814900697FFF753FB4FF40050CDE921
:100C4000020805F5E6302146CDE904690697FFF76D
:100C500047FB07B0BDE8F0832DE9F04381B00446BF
:100C600090F85000012803D1022001B0BDE8F083C4
:100C700001201E4615460F4684F85000FFF702FC7F
:100C800094F85110814601290CD06068B0F5827F3C
:100C900076D104294FF0020040F0C680A1680029F7
:100CA00040F0C280002F4FF0010018BF002D00F06F
:100CB000BB80002E00F0B88094F851000021042879
:100CC0001CBF052084F851006165A563E687A687EF
:100CD0002763E6862068A686216461640168490668
:100CE00003D4016841F0400101606168731EE2684D
:100CF000B1FA81F1B3FA83F3DDF8208049095B0989
:100D0000B2F5006F41EA03013CD139B1216B09888A
:100D1000C160B81C2063E08E0138E086012608F12E
:100D2000010500BFE08E10B9E08F002866D0206872
:100D3000816889070CD5E18E012E09D141B1216B63
:100D4000002631F8022BC2602163E18E0139E18671
:100D50008168C9070AD0E18F41B1C068A16B012643
:100D600021F8020BA163E08F0138E087FFF78AFBCF
:100D7000002DD7D0A0EB09004045D3D3032053E08A
:100D8000022051E039B139780173206B01302063C2
:100D9000E08E0138E086012608F10105E08E08B9F1
:100DA000E08F58B32068816889070DD5E18E012E48
:100DB0000AD149B1216B002609780173206B0130FB
:100DC0002063E08E0138E08620688168C9070BD077
:100DD000E18F49B1C068A16B01260870A06B01309A
:100DE000A063E08F0138E087FFF74CFB002DD5D0E2
:100DF000A0EB09004045D1D3032015E02046414631
:100E00004A4600F00DFA18B12020606501200BE081
:100E1000A06800284FF0000006D100902168CA6841
:100E20000092896800910099012184F851100021F5
:100E300084F8501001B0BDE8F083000080B500F0E8
:100E4000A3FA80BD002804BF0120704710B50446F6
:100E500090F83D0028B9002084F83C00204600F0BE
:100E600021F8242084F83D002068C16821F4005155
:100E7000C160204600F002FB2068016921F4904126
:100E80000161416921F02A014161C16841F40051C9
:100E9000C16000202021206484F83D1084F83E10B9
:100EA00010BD000080B586B000220592CDE9032276
:100EB00041F200010068C4F20101884202920192ED
:100EC00001D006B080BD43F630000092C4F20200AB
:100ED000436943F010034361436903F01003009337
:100EE000009B0092036843F001030360006800F078
:100EF0000100009000984FF4C06001900220CDE9FD
:100F00000202032004900720059001F5704001A91A
:100F1000FFF7E6F906B080BDFEE70000F0B587B048
:100F2000002643F630000696CDE90466CDE9026658
:100F30000196C4F20200016840F2004441F08001D1
:100F400001600168C4F2020401F08001019101997D
:100F500001960168012241F004010160016841F23B
:100F6000020501F004010191019901960168012730
:100F700041F002010160016801F002010191019953
:100F80000196016841F001010160006841F202012F
:100F900000F00100019001982046FFF76DFACDE9BD
:100FA0000257022002AD0590204629460496FFF71D
:100FB00097F9042002A9C1C120462946FFF790F9FC
:100FC00007B0F0BD80B540F2180043F60001C2F250
:100FD0000000C4F200014FF4827200234FF4007C41
:100FE00080E80E000A21C0E90333C0E9053CC36173
:100FF000C0E90833C0E90A31FFF77EFD002818BFB9
:10100000FFF756F980BD000080B540F2700041F254
:101010000001C2F20000C4F2010100234FF00C0CE9
:101020004FF4E13280E80E00C0E90333C0E905C3A4
:10103000C361FFF707FF002818BFFFF739F980BD2C
:10104000FEE70000FEE7000000F0070080F0070365
:10105000042B28BF04234FF0FF3C03380CFA03F3A2
:1010600038BF0020994381400CFA00F022EA0000CA
:10107000084370477047000010B540F20044C4F2C6
:10108000020420464FF480510022FFF7F5F940F2A8
:101090000801C2F200012A20052200F07FF8212079
:1010A000012100F0A1F82220012100F09DF8252067
:1010B000282100F099F83120202100F095F8262011
:1010C0000F2100F091F820200F2100F08DF827204B
:1010D000FF2100F089F820464FF480510122FFF7EC
:1010E000CBF910BDF0B581B040F20044C4F2020467
:1010F00015460F46064620464FF480510022FFF762
:10110000BBF9304600F0BEF8064645B1013F00BFCE
:10111000002000F0B7F8013D07F8010FF8D1204694
:101120004FF480510122FFF7A7F9304601B0F0BD1E
:10113000B0B540F20045C4F20205044628464FF41B
:1011400080510022FFF798F9204600F09BF800201C
:1011500000F098F8044628464FF480510122FFF72A
:101160008BF92046B0BD0000B0B504460720FFF75C
:10117000DFFF05462720294600F036F868065CBFE9
:101180000120B0BD612021462022FFF7ABFFE22005
:10119000FF2100F029F80020B0BD00002DE9F0414A
:1011A00040F20048C4F2020815460F460646404683
:1011B0004FF480510022FFF75FF9304600F062F8EB
:1011C000064645B1013F002417F8010F00F05AF818
:1011D0000134AC42F8D340464FF480510122FFF76E
:1011E0004BF93046BDE8F08170B540F20046C4F2DC
:1011F00002060C46054630464FF480510022FFF7A8
:101200003BF9284600F03EF80546204600F03AF843
:1012100030464FF480510122FFF72EF9284670BD69
:1012200010B582B040F20403C2F200031B6849F615
:101230008174C1F25E64A3FB043C04464FEA5C5037
:101240004FF47A73584301906068B0F5827F0DD1F6
:1012500013460A462046802100F02CF878B1606DD4
:1012600040F020006065032002B010BD019830B14D
:10127000019801380190206880680006F6D40020AB
:1012800002B010BD80B582B08DF8070040F21800A2
:101290004FF0FF0CC2F200000DF107010DF1060244
:1012A0000123CDF800C0FFF7D7FC9DF8060002B07F
:1012B00080BD00002DE9F04381B01E4690460D46EA
:1012C0008146FFF7DFF8301A00EB0807FFF7DAF87E
:1012D00040F20401C2F200010968C1F3CB31794345
:1012E0000091D9F8001089682940A94219D1064611
:1012F00008F1010406E000BFD9F80000806828402A
:10130000A8420ED1002CF7D0FFF7BCF8801BB842E2
:101310000BD200980099002808BF0746481E00908D
:10132000EAE7002001B0BDE8F083D9E90001426896
:10133000B1F5827F22F0E00242600BD1D9F80810AB
:10134000B1F5004F02D0B1F5806F03D1016821F0F3
:1013500040010160D9F82810B1F5005F07D101689C
:1013600021F400510160016841F400510160012045
:1013700089F85100002089F85000032001B0BDE831
:10138000F083000070470000B0B501380024B4EBD2
:10139000106F1CBF0120B0BD4EF21005CEF200054B
:1013A00068604FF0FF300F2100F0E0F80720AC60DC
:1013B00028602046B0BD000080B5FFF769F880BD09
:1013C00070B592B006AC20463021FEF731FF002503
:1013D00043F640000595CDE90355CDE9015500954B
:1013E000C4F202000168022641F0805101600068E9
:1013F00000F080500090009847F200000095C4F281
:101400000000016841F4804101600068A82100F4F7
:10141000804000900098012006904FF480300790A3
:101420004FF480000D9004200C960E90CDE90F161D
:1014300011902046FFF7BEF9002818BFFEF738FFCD
:101440000F20CDE901064FF4A05004904FF48050D6
:10145000059001A805210395FFF79CF8002818BF07
:10146000FEF726FF12B070BD4EF68850CEF2000097
:10147000016841F4700101607047000010B5044636
:101480000068D4E902C22369016921F44051114383
:101490000161626943EA0C01E3691143C2681943BF
:1014A00049F20C639A431143C1604169A26921F476
:1014B000407141F20043114340F48062C4F20103E1
:1014C0009A42416102D1FFF72DF901E0FFF718F9C7
:1014D000E16963681922B1F5004FA0FB02011CD13C
:1014E0005A00DB0FFEF76CFE48F21F51C5F2EB11FC
:1014F000A0FB01235A096FF0630302FB03003223B0
:1015000003EBC000A0FB01014FF4F87000EA1110DA
:1015100000EB0210C1F342111AE09A009B0FFEF794
:101520004FFE48F21F51C5F2EB11A0FB01235A09EF
:101530006FF0630302FB0300322303EB0010A0FBF8
:101540000101F02000EA511000EB0210C1F3431139
:1015500022680843906010BDFEE700004EF60C5074
:10156000CEF200000068C0F3022070474EF614531C
:1015700000F00F02CEF2000309011A4400F16043AB
:10158000B0F1FF3FC8BF03F564421170704700001F
:101590004EF60C51CEF200010A684FF6FF031A40D6
:1015A00060F30A2242F0806040F0FD7008607047EE
:1015B00041F20001C4F201010A685206FCD5C2B230
:1015C0004A60704788B0FEF771FFFFF7F9FEFFF73A
:1015D000A5FCFFF719FDFFF7F5FCFFF74DFDFFF741
:1015E0004BFDFFF749FD41F65C14C0F600042046B0
:1015F00000F028F800276D460FA606E04FF4FA70B9
:10160000FEF75AFE204600F01DF82846CDE9067781
:10161000CDE90477CDE90277CDE90077FFF7A4FDA6
:101620000028EBD19DF800109DF801209DF80230B4
:10163000304600F007F8E1E725782C25782C25784E
:101640000D0A00000FB4054B10B503A9044A029817
:1016500000F018F810BC5DF814FB0000B11500088C
:101660000000002002E008C8121F08C1002AFAD1B9
:1016700070477047002001E001C1121F002AFBD112
:10168000704700002DE9FF4F8DB09B460F46044682
:10169000002606E025280BD05A460F999047641C77
:1016A000761C20780028F5D111B03046BDE8F08FC7
:1016B0000025A8460122984900E0054314F8013F9F
:1016C000203B02FA03F00842F7D120782E2817D1E8
:1016D00014F8010F45F004052A280ED06FF02F02F0
:1016E0002078A0F1300109290AD808EB880102EB23
:1016F000410100EB0108641CF2E757F8048B641CFD
:1017000020786C280DD004DC4C2812D06A2811D126
:1017100004E074280DD07A280CD10AE045F40015B5
:1017200007E0617845F48015814202D1641C05F51B
:101730008015641C2278692A45D008DC002AB3D0C1
:10174000582A69D0632A10D0642A08D13BE0702A55
:1017500067D0732A13D0752A5CD0782A5CD01046E3
:101760005A460F999047761CD3E017F8040B8DF872
:10177000000000208DF80100E946012003E057F841
:10178000049B4FF0FF3069074FF0000501D40AE0D9
:101790006D1C45450DDA8542FADB19F80510002964
:1017A000F6D106E06D1C8542FCDB19F80510002916
:1017B000F8D12E4404E019F8010B5A460F999047CE
:1017C0006D1EF8D2A5E00A200021CDE90801C5F37D
:1017D000025002280DD001CFC117031E71F1000382
:1017E0000DDA4FF0000CD0EB0C006CEB01012D2357
:1017F00008E0FF1D27F00707F7E80201EDE72B05DA
:1018000004D52B238DF8283001233BE0EB0739D09A
:101810002023F7E70A2000E010200021CDE908018D
:1018200007E01020002145F00405CDE908014FF044
:101830000808C5F3025002280FD001CF00214FF055
:10184000000A2B071FD5702A0DD0DDE908C38CF0E4
:10185000100C5CEA030C0CD015E0FF1D27F0070705
:10186000F7E80201EBE740228DF828204FF0010A4B
:101870000BE050EA010306D030238DF828308DF8B4
:10188000292002239A46582A04D024A20DF12009C7
:101890000B9209E026A2F9E7DDE90823FEF790FCA8
:1018A0000B9B9B5C09F8013D50EA0102F4D1ADEBC2
:1018B000090020300890680701D44FF0010808990A
:1018C000884502DDA8EB010000E0002080460025ED
:1018D00006E00AA85A46405D0F9990476D1C761C99
:1018E0005545F6DB04E030205A460F999047761CA8
:1018F000B8F10001A8F10108F5DC05E019F8010BC9
:101900005A460F999047761C0899481E089000295E
:10191000F4DC641CC5E600000928010030313233D4
:10192000343536373839616263646566000000001B
:101930003031323334353637383941424344454605
:10194000000000000000000000000000010203048D
:101950000607080900000000010203044F4B0000C5
:10196000801900080000002018000000641600081C
:101970009819000818000020A00400007416000840
:10198000000000000024F4000A01070E010100001D
:0819900010000000000000003F
:040000050800018965
:00000001FF
